S02B0000633A5C7265706F5C446F744E65742D4D465C4D6963726F4672616D65776F726B504B5F76345F335C25
S3150802000000C00020F901020869DA0208CDD90208FF
S3150802001069DA020869DA020869DA020800000000E9
S31508020020000000000000000000000000F1D90208EC
S3150802003069DA0208000000002DDA020869DA020805
S3150802004069DA020875DA0208ADDA0208E5DA0208A0
S315080200501DDB020855DB0208B9E702088DDB020838
S31508020060C5DB0208FDDB020835DC020871DC020882
S31508020070ADDC0208E9DC020825DD020861DD0208BA
S315080200809DDD0208D9DD020815DE020851DE0208E6
S315080200908DDE0208C9DE020805DF020841DF020812
S315080200A07DDF0208B9DF0208F5DF020831E002083F
S315080200B0F1E7020885E00208C1E00208FDE002084D
S315080200C039E1020875E10208B1E10208EDE1020828
S315080200D029E2020865E20208A1E20208DDE2020854
S315080200E019E3020855E3020891E30208CDE3020880
S315080200F0E9E502081DE6020881E40208BDE40208F1
S31508020100F9E4020835E5020871E50208ADE50208D8
S3150802011009E4020845E4020851E602088DE60208E7
S31508020120C9E6020805E7020841E702087DE7020870
S3150802013000000000000000000000000000000000AF
S31508020140000000000000000000000000000000009F
S31508020150000000000000000000000000000000008F
S31508020160000000000000000000000000000000007F
S31508020170000000000000000000000000000000006F
S31508020180000000000000000000000000000000005F
S31508020190000000000000000000000000000000004F
S315080201A0000000000000000000000000000000003F
S315080201B0000000000000000000000000000000002F
S315080201C0000000000000000000000000000000001F
S315080201D0000000000000000000000000000000000F
S315080201E05FF8E0F1EFBEADDEF901020860DB080850
S315080201F00000020850DB0808044880F3088800F06B
S315080202006DF806F04FFC08F001FB704700C00020AD
S315080202101449154810B48142144C08D034F003042A
S3150802022005D00023C258CA5004339C42FAD1104959
S315080202301048114C814208D034F0030405D000233B
S31508020240C258CA500433A342FAD10C4B33F0030303
S3150802025005D00B4A0021043B42F8041FFBD110BC0F
S31508020260704700BF0000002040DD080800000000BB
S315080202700000002040DD080898A200000898000047
S315080202808C0A002000B5002383B001933223ADF80F
S31508020290043001238DF80730019800F027F8034847
S315080202A003B05DF804EB08F07FBA00BF78C406080D
S315080202B030B5094C85B00546204608F009F90023F1
S315080202C002900093284601940421032201F08EFA33
S315080202D0012005B030BD00BF84C40608024B1A6867
S315080202E042F400321A60704708ED00E02DE9F04F3B
S315080202F0944A954B9DB0C3EB020B944FDFF85C8290
S3150802030003901FFA80FAC0F307444FEA10692BF0EC
S31508020310030B14F0CBFE00200421032203460090AF
S315080203208B4803F0B3FD13F041FE8A4803F0AEFD95
S31508020330A7F800A0BC7087F803901DF061F80028A2
S31508020340C0F2DC80844803F0A1FD2CB1D8F8003055
S3150802035043F00043C8F8003080480FF0D3FF002866
S31508020360C0F2CC807E48784D03F090FD00F0E4FAA6
S3150802037001237C483B7103F089FD07A8294604AA94
S31508020380794E04F0A3FC48B1079B3BB19A68D8683A
S315080203909368984703789B0740F19E812C46294625
S315080203A03246724803F072FD00222046711B03F0A2
S315080203B0E3FF04F17C036E4A9E42106000F2EA8073
S315080203C06C4803F063FD08A8502104F09DFE00283E
S315080203D000F09581119B12AC9A68D8689368984781
S315080203E008AE05780FCE0FC40FCE0FC496E80300E9
S315080203F00023C5F3400584E803000693002D00F0A8
S315080204001A8106AE12A831467C2204F0D1FE0028D3
S315080204104FD0069C204616F019F8002849D0646E7B
S31508020420033424F003043DB920460C211CF0BCFB1E
S315080204300590002800F0FB806FF07B01012212A8CC
S3150802044004F076FE12A805A9224604F0B1FE002899
S315080204502FD0059C204616F025F8002800F0E180EA
S31508020460454803F013FD204607A919F041FD002867
S31508020470C0F2D780079B986913F0B6FD044640B1CF
S31508020480079B426859694969914240F0AD80826882
S31508020490DA613A48079917F0FDFA079B12A81A6912
S315080204A0314642F008021A617C2204F081FE0028D5
S315080204B0AFD1002D00F0BB8008A804F0F3FC002899
S315080204C088D12F4803F0E2FC2C4818F0D5FB011E10
S315080204D0C0F2F8802B4803F065FF28481FF016FF84
S315080204E0011EC0F2EF80284803F0D0FC00215246D4
S315080204F01A4821F005F8254803F0C8FCD8F8002068
S31508020500164B12F0005215D1196821F44061196090
S315080205101F4908681968006841F40061196028B122
S31508020520012300930921134603F09AFBB9F1000F40
S3150802053040F0CF80D8F80030980000F189801DB0CD
S31508020540BDE8F08F4FDB0808A8BD0708900A00200F
S31508020550CCC40608F0C4060800C5060858340020AC
S3150802056010C5060824C506084CDB0808ACC60608EA
S31508020570E83A0020CCC6060880C60608FC380020E1
S315080205809CC60608A0360020F0C60608FCC6060861
S3150802059060320020204615F085FF07A900283FF49F
S315080205A00FAF204619F0A4FC011EC0F28B80079BF0
S315080205B0986913F019FD054656483DB107996B68C7
S315080205C04A6952699A425ED1AB68CB61079917F0BC
S315080205D061FA636E0333E41824F0030404F17C031E
S315080205E09E427FF6EDAED5E74B4803F04FFC4B48EB
S315080205F003F04CFC4A4803F049FC484803F046FC21
S31508020600464803F043FC079A636850699169426950
S31508020610444803F03BFC414803F038FC3E4803F0EB
S3150802062035FC002D7FF448AF059813F0C9FC0698EF
S3150802063013F0C6FC40E77C2001211CF0E5F9069080
S3150802064000283FF439AF29467C2245F05FFBD8E6FD
S31508020650354B9B68D90739D503F0050300205A1F85
S3150802066054425441054606F0F3F9304803F098FE21
S3150802067020F0B4FB3D7108F023F807F0E1FF2846A5
S3150802068006F0EAF945E6244803F000FC234803F09D
S31508020690FDFB234803F0FAFB204803F0F7FB1F484B
S315080206A003F0F4FB079A6B685069916942691D4821
S315080206B003F0ECFB194803F0E9FB174803F0E6FBE5
S315080206C04FF016411A4803F0E1FB17E705F00EFE54
S315080206D035E700F00FF92DE758460C211CF064FAAD
S315080206E0044698B1079B04999A68D868D568234640
S315080206F05A46A84738B1254604EB0B064FE60D487D
S3150802070003F0C4FBDDE64FF07741DBE74FF07A41B1
S31508020710D8E700BFFC38002034C5060880C506089D
S31508020720CCC5060818C6060858340020A03600208C
S3150802073004C706084CC6060838B504460D460028FE
S3150802074041D00378142B33D028602378102B26D077
S3150802075005F10800214615F05DFA002832DB002370
S315080207602B712278102A28D0A9686B7101F06002D1
S31508020770202A10D0402A0ED001F01F0110290AD8CB
S31508020780124A8A4007D533B9114AEB68926B9A1A0C
S315080207905342534100E00123AB71002038BD636820
S315080207A0002BD5D1012300202B716871AB7138BD9E
S315080207B044680C60002CC8D1F4E763685B78C3F31D
S315080207C00013D1E738BD2860ECE700BF00808040FF
S315080207D0883700202DE9F041054688B00F461646AF
S315080207E09846002832D00C68002C31D01AB9104627
S315080207F008B0BDE8F08104F1B0030B60002188451A
S3150802080008BFA846B022204645F080FAC4F8008000
S315080208102B780E9963606A78A2606A88E26000297A
S3150802082056D00A68C4F89820013B192B0ED8DFE87F
S3150802083003F0191919191919191919191919191957
S3150802084020363F3F44360D0D0D0D19110120CFE715
S315080208502046CDE76B680120C4F8A830AB68C4F817
S31508020860AC30C5E755F8042F01206B682261636135
S31508020870BEE76D68C4F89450002D35D0284607F0B7
S3150802088027FE0346C4F89000802104F110002A4688
S315080208907F2B28BF7F2307F005FE0120A8E70E9BC2
S315080208A0686839460093721E0023FFF793FF9FE795
S315080208B06B680120C4F898309AE7EB68EA88C4F8AE
S315080208C09C30C4F8A020AB680120C4F8A4308FE796
S315080208D002A8294615F09EF90028A8BF039A63685C
S315080208E0A8BFC4F898209FE7C4F890502574012041
S315080208F07EE700BF38B50D4940F201500C4C07F0AF
S3150802090095FA0C4803F0C2FA23689A000CD42368B5
S315080209109B030AD42546064812F0A2FE23689900CC
S3150802092002D42B689803F6D538BD38BD14C7060815
S315080209305834002038C706082DE9F04723A5D5E91B
S31508020940004584B007F0CCF924180DF1100845EBE0
S315080209500105DFF880900023194F48F8083D42F256
S31508020960010AD9F8000000210668082243463046E3
S315080209701EB1CDF800A003F073F93B68002B08DB23
S3150802098005F0CCFC28B10E480FF02AFD04B0BDE8EC
S31508020990F0870B4812F064FE3B68590009D407F049
S315080209A09FF9844275EB0103DBDA064803F06EFA17
S315080209B0E9E7054803F06AFAE5E700BFAFF3008006
S315080209C0583400206CC7060858C7060880F0FA0291
S315080209D000000000603200202DE9F041244E002379
S315080209E0244D776833608EB02B68002F37D043F0DA
S315080209F000632B60DFF8A0801F4C204B0021B02239
S31508020A0040461C6045F082F91D4B59689B6899421D
S31508020A1009BF1C4BC4F800801B682360002333609F
S31508020A202B68002F1FD123F000632B60164D174B3E
S31508020A300095174D20682D68164A1B680195029481
S31508020A4002F036FF04A8502104F05EFB00B10D98AF
S31508020A50B06005F07FF800200EB0BDE8F08123F003
S31508020A6000632B60C6E743F000632B60DEE700BF36
S31508020A70980A002058340020E03A0020603200200C
S31508020A80F4020020A80B0020D0C70608CCC7060827
S31508020A90C8C70608D8C706082C3A002008B5034B6B
S31508020AA01B68186802F07EFF002008BD603200202D
S31508020AB00068303003F0C4BF006803F079B800BF9D
S31508020AC02DE9F04F564887B003920493D0F858514F
S31508020AD000E01D466B68002B00F09080EA6991429F
S31508020AE0F7D1D5F850C14FF0010ADCF804300026D8
S31508020AF0002B34D0012E34D06146002404E05A6813
S31508020B00023419464AB113468A6C611C002AF6D188
S31508020B105A680C461946002AF5D136B1BAF1020FBF
S31508020B2016D1002007B0BDE8F08F049F20010C30D3
S31508020B3038604FF400611CF037F8039F38600028CC
S31508020B406BD02A6A6B6AD5F850C10460426083602A
S31508020B50DCF8043001360AF1010A002BCAD11C4618
S31508020B60DBE7039F624639680024029505960191E0
S31508020B7039E001980F6900EB0418106DC8F80C707B
S31508020B80CD690E6A576AC6EB0509C5690134C8F804
S31508020B901090C8F81450C8F81870A046019ED56976
S31508020BA006EB0414966B04F10C09C6EB050B956A61
S31508020BB0C9F804B0E560BBF1000F08D0029ED6F86A
S31508020BC05841A24203D00BF1FF32C9F80420C26988
S31508020BD0C9F80C70C9F80820D1B108F1010459689E
S31508020BE01A4641B10B46916C0029C2D1106D04F127
S31508020BF00108576AD2E7029D059E8FE7D0F864512D
S31508020C0000E01D466B682BB1EA699142F9D168E7A3
S31508020C104446E4E74FF0214084E74FF07A4081E703
S31508020C2058340020F0B52A4B02465C68002085B08D
S31508020C301860002C31D0274C236843F000632360E8
S31508020C402068D36940F0804013F0020F2060536A8F
S31508020C5029D1002B35D05E6806F0010623680025E7
S31508020C6013F4006F02AB14BF04272F4608680093DB
S31508020C700823019311462B4601220295039702F097
S31508020C80F9FF236813F4406F04D1AEB9236823F041
S31508020C9000432360012005B0F0BD0E4C236823F003
S31508020CA000632360CCE773B15B68D8070BD5094BA1
S31508020CB01B6813F4406FEDD1236843F000432360A9
S31508020CC0E8E71E46CAE7236813F4406FDED0E1E779
S31508020CD0980A0020583400202DE9F04F89B0069072
S31508020CE0079105F0DDFD069AD36913F002037BD15D
S31508020CF004931E4602939B4604F030F8059000289A
S31508020D0000F08A80049B012B70D005988368C0681E
S31508020D109B6898474369002B3DD0D0F8189003EB9F
S31508020D20830309EB83030393D9F80C80B8F1000F08
S31508020D302CD0049A002A4ED00023D9F81070D9F87C
S31508020D400810D9F800A01A4604E0013201360C331D
S31508020D5042451BD0FC186068A46800FB01ACC0EBD6
S31508020D60040E0EFB011EF85C06EB46050BEB85042A
S31508020D7040284BF825C0C4F804E0A060E5D10298E3
S31508020D80013201380C3342450290E3D1039B09F143
S31508020D9014099945C8D1059803F0ECFF0590002877
S31508020DA0B3D1049A0132022A0492A5D1029A079B68
S31508020DB002EB4204A400186806990122059BCDF8A5
S31508020DC000B0019402F056FF584613F0DBF80120F2
S31508020DD009B0BDE8F08F029A039B09F1140942444F
S31508020DE099450292A0D1D6E70120F1E7029A02EBD1
S31508020DF0420080001BF0B2FE8346002885D1079B7D
S31508020E0006991868049ACDF800B0CDF804B05B4686
S31508020E1002F030FF5846DBE7079B02460699186838
S31508020E2000920192059B012202F024FF0598CFE762
S31508020E302DE9F04F436ADFF84492ADF2344D5A6811
S31508020E400590D9F80800B2F5806F28BF4FF4806282
S31508020E5007910492002833D082681C68C068936898
S31508020E609847214608AA09AB04F0F2F900282CD1C2
S31508020E70794A9369D2699C421A440DD394420BD299
S31508020E8004980119914207D80CAA069210462146DF
S31508020E90049A44F01BFE07E0009270482146049A21
S31508020EA002F0F4FF0CA90691079B0699049A1868A2
S31508020EB08DE8060005990122002302F0DBFE0120D7
S31508020EC00DB00DF5806DBDE8F08FD9F808309A6837
S31508020ED0D86893689847089B82699F00F918890021
S31508020EE003905018D0F808B0039856584169A61BC3
S31508020EF0B6FBFBF58B420BFB1565D3D20CA8069005
S31508020F00DDF81080DDF818A00120FF1802EB87072C
S31508020F107B68B6FBFBF69E42C5EB0B0529D37BE045
S31508020F204F4A934204D063D844F240029342BBD15B
S31508020F300398454528BF454603789A0751D4D9F8F8
S31508020F40083021469A68D868D2F80CC053462A4611
S31508020F50E0470028A8D0C5EB0808B8F1000FA3DDC2
S31508020F607B6801369E42AA442C4471D25D46D7F864
S31508020F7008B0099B3A6903EB430102EB81029268C6
S31508020F80B24204D2FA6801339342099340D2D9F89D
S31508020F9008309A68D8689268904721460AAA0BAB25
S31508020FA004F056F9D9F808309A68D86893689847C9
S31508020FB00A9B826903EB830302EB83030B9A1B6981
S31508020FC002EB420253F8223026498B42B0D0A7D907
S31508020FD025488342ACD013D824498B427FF464AFA8
S31508020FE0A6E7504621462A4644F070FD0120B2E79C
S31508020FF01F4A93429CD0303293427FF455AF97E70B
S315080210001C4A934294D01C4883427FF44DAF8FE723
S31508021010029005F059F902980023984509937FF73B
S3150802102043AF00283FF440AF0399089B4A6901334E
S3150802103093420893BFF438AF8A699F00F91852F8A9
S31508021040216002EB8101D1F808B00025A61B5CE7F6
S3150802105000230993E8E700BFF40200207CC70608CC
S315080210605020004090400040E0400040A040004030
S3150802107030400040F040004030400140980A0020CD
S315080210802DE9F04FDFF8D8918BB0D9F808400390D4
S315080210900591436A002C2ED0A2681D689268E06802
S315080210A05F6803F1080A9047294606AA07AB04F0C7
S315080210B0CFF8002823D1674A9369D2699D421A4418
S315080210C00BD3954209D27919914206D82846514638
S315080210D03A4644F0FBFC012406E000925E482946A3
S315080210E03A4602F0D3FE0024059A039910680023B3
S315080210F0224602F0EFFD20460BB0BDE8F08FD9F884
S3150802110008309A68D86893689847069B82694FEAB6
S31508021110830808EB0301890004905018D0F808B038
S31508021120049856584169AE1BB6FBFBF401208B4264
S315080211300BFB1464CFD2984402EB8808D8F8043023
S31508021140B6FBFBF69E42C4EB0B0419D360E0D9F852
S31508021150083029469A68D86800230093D2F810C046
S31508021160534622462D19A244E0470028B3D0002F41
S31508021170B1DDD8F804305C469E4268D2D8F808B089
S31508021180079AD8F8103002EB420103EB81039B68F9
S315080211900132BC4228BF3C46B34206F1010604D2DC
S315080211A0D8F80C3007929A422ED2D9F808303F1B4B
S315080211B09A68D86893689847294608AA09AB04F03A
S315080211C047F8D9F808309A68D86893689847089B08
S315080211D0826903EB830302EB8303099A1B6902EB19
S315080211E0420253F822201D4BD1B2502902EA0303C8
S315080211F0ADD01A498B42AAD0164B586804F012FA97
S315080212000128A4D000246FE7029005F05DF8029841
S3150802121000218F4207917FF75EAF00283FF45BAF4C
S31508021220049B5A69069B013393420693BFF453AF54
S3150802123004994FEA83088A6908EB030152F8216088
S3150802124002EB8101D1F808B00024AE1B73E7002334
S315080212500793E5E7F40200207CC706083040014000
S31508021260980A00202DE9F04FDFF8F0A18FB0DAF8DE
S315080212700820436A059090681E685B688468D0688F
S3150802128007910393A04731460AAA0BAB03F0E0FF86
S31508021290002827D16F4A9369D2699E421A4408D315
S315080212A0964206D203988119914202D809AA069251
S315080212B007E0009268483146039A02F0E7FD09AB57
S315080212C00693069ADDF81CE00423DEF80000059969
S315080212D08DE80C000122002302F0CCFC01200FB09D
S315080212E0BDE8F08FDAF80830DDF80C809A68D8681D
S315080212F0936898470A9A81694FEA820909EB0203B9
S315080213009B000490C818D0F808B00498CF584369CF
S31508021310F71BB7FBFBF59A420BFB1575C6D209AB51
S315080213200693069C0123914401EB8909D9F8042006
S31508021330B7FBFBF79742C5EB0B0530D365E00121F6
S315080213401BF062FB2A460446034631460028B8D0FB
S31508021350DFF808E1DEF80800D0F808E0C068DEF831
S315080213600CC0E04729460346099A2046029303F031
S3150802137003F80990204612F023FE029B002BA0D008
S31508021380C5EB08080137B8F1000F2C442E4498DD46
S31508021390D9F804205D46974258D2D9F808B00B9A74
S315080213A0D9F8101002EB420001EB8001896801327C
S315080213B0454528BF4546B94204D2D9F80C100B92C6
S315080213C08A421ED2DAF808309A68D868936898472B
S315080213D031460CAA0DAB03F03BFFDAF808309A68DF
S315080213E0D86893689847DDF810E003989EF80030AD
S315080213F09907A4D5204631462A4644F067FB0123BD
S31508021400BEE7029304F060FF029B002080450B9022
S315080214107FF757AF002B3FF454AF049A51690A9AE3
S3150802142001328A420A92BFF44CAFDDF810E04FEA65
S315080214308209DEF8181009EB020051F8207001EB58
S315080214408000D0F808B00025F71B6CE700200B9047
S31508021450E3E700BFF40200207CC70608980A0020CA
S315080214602DE9F04F854F8DB00591039005F018FAD6
S315080214700399B86801243C604D6A002800F0F98097
S3150802148000210AA805F0B2FABB682E689A68D868DD
S3150802149093686D689847314606AA07AB03F0D8FEEB
S315080214A0002837D1764A9369D2699E421A440DD3E7
S315080214B096420BD2A919914208D8002D00F0D7807E
S315080214C03046FF212A4644F021FC06E000926D4888
S315080214D031462A4602F0DAFC00246B4D06F008FB78
S315080214E0002005F0B9FA2B68059A2E681068C3F32E
S315080214F0C06E46F00066039922460023C7F804E048
S315080215002E6002F0E7FB0AA805F076FA20460DB02F
S31508021510BDE8F08FBB689A68D86893689847069BB7
S3150802152082694FEA830C0CEB030189000490501878
S31508021530D0F8089051580498C1EB060E4169BEFBD3
S31508021540F9F88B4209FB18E880F09180DFF854A17C
S3150802155020469C4402EB8C0BDBF80430BEFBF9F404
S315080215609C42C8EB090865D2079BDBF8102003EBFF
S31508021570430102EB81029268A84528BFA846A24207
S3150802158005D2DBF80C200133934207934ED2BB688F
S315080215909A68D86893689847314608AA09AB03F04F
S315080215A057FEBB689A68D86893689847089B826909
S315080215B003EB830302EB8303099A1B6902EB4202DC
S315080215C053F82230534513D00BD830498B420FD0EB
S315080215D02F4A93420CD044F24002934208D0002488
S315080215E07BE72C4A934203D018D82B488342F6D17C
S315080215F0BB6831469A68D868536A9847002836D035
S31508021600C8EB0505002D32DDDBF8043001349C42B7
S31508021610464430D2C846DBF80890A5E71F498B42F4
S31508021620E6D01F4A9342E3D0002456E7029004F01C
S315080216304BFE029800239D42079318DDB8B1049B1E
S315080216405A69069B01339342069310D204994FEACC
S31508021650830C8A690CEB030152F8214002EB8101E3
S31508021660D1F808904FF00008C4EB060E71E7012482
S3150802167033E704464AE700230793E0E7980A00207F
S31508021680F40200207CC70608583400205020004087
S3150802169060400040E0400040A0400040F04000406A
S315080216A0304001409040004010B50346446A01228A
S315080216B008681946002302F00DFB236898470120A3
S315080216C010BD00BF70B5446A05460E4604B32368CA
S315080216D0D9071FD404F022FED0B12368144C9A0706
S315080216E011D4580742BFA36843F00503A3602368D1
S315080216F03068294643F0005601220023266002F08C
S31508021700E9FA012070BDA36843F00103A360EEE77E
S31508021710074CECE7306829460122002302F0DAFA80
S3150802172000216422202004F089F906F0EFFED1E7B1
S3150802173058340020F0B50E4B89B00A689E691C6AB7
S315080217405F6A0146D86902AB012500931823039004
S315080217500193104605942A4600230224029604950C
S315080217600697079402F086FA284609B0F0BD00BF2C
S31508021770F40200200120704700B50A6885B00146C8
S31508021780074804AB43F8040D00930423104601935B
S315080217900122002302F06EFA012005B000BD00BF47
S315080217A058340020104A70B5436A1668044693E80E
S315080217B0210046EA000313601068E36920EA05007F
S315080217C013F0010384B010600BD1156804AA42F81D
S315080217D0045D08680092042201922146012202F061
S315080217E049FA012004B070BD5834002070B4049C34
S315080217F0BDF80C6083800023059D01804280C68067
S31508021800037204B10DB970BC7047083038212246FC
S31508021810372D34BF2B46372370BC06F043BE00BFB4
S3150802182070B5466AA0B004460D4603A80021742284
S3150802183044F06CFA3368013B062B0AD8DFE803F05A
S3150802184016256409333C040003A8FEF731FD012876
S315080218506CD000221346114628688DE80A002146F4
S31508021860002302F007FA012020B070BD40F21F43A0
S31508021870039304F053FD0122002854D0039B03A9C5
S3150802188043F0200303930423E6E704F05BF903908D
S3150802189004F05AF9049004F059F90C230122059030
S315080218A00DEB0301D8E703A804F060F80128D0D1AC
S315080218B00246742303A9CFE7224806F009FE034627
S315080218C004200022ADF80C000320ADF80E00ADF896
S315080218D01020ADF812208DF814203BB105A8382146
S315080218E0184A372B28BF372306F0DCFD164BD3F8E8
S315080218F00431FBB15B69EBB1196ADB690122139307
S315080219001491482303A9A7E704231048089306F06D
S31508021910DFFD142103460D4A03A806F0C3FD012282
S31508021920182303A998E7042303A995E70246402347
S3150802193003A991E70023139314930122482303A9C9
S315080219408AE700BF84C40608FC380020B8C7060820
S3150802195030B5436A85B004460D4618684FF40061EF
S315080219601BF052F8039050B103AB28680093042386
S31508021970019321460122002302F07CF9012005B0D9
S3150802198030BD00BF2DE9F041144C054684B06068AD
S3150802199088466F6A03F008FEE0B1012304AE46F8F2
S315080219A0043D29460425D8F800001A4600960195F2
S315080219B002F060F900214FF49672202004F03EF8F6
S315080219C06068396803F000FEB0F1010EDEF100002E
S315080219D050EB0E0004B0BDE8F08100BFF40200200F
S315080219E02DE9F0470546406A8AB0C26CB0F854A0A1
S315080219F0B0F85690076C466C836C0892026D88465E
S31508021A00002404A9ADF81E3009920694ADF814A074
S31508021A10ADF816900497ADF81C6004F09DF8D8F856
S31508021A2000300AAA42F81C0D184604238DE80C0059
S31508021A3029460122234602F01DF901200AB0BDE813
S31508021A40F08700BF2DE9F04F456A87B0002403945A
S31508021A500494059405F10C07894602A9064695E8F9
S31508021A600D000191009411463A4602940DF10C0AB2
S31508021A7004F076F848B30298A04226DD00F1080B76
S31508021A8058461BF06BF88046F8B108F1080295E84B
S31508021A900B00009202AA01923A4604F061F888B154
S31508021AA0029B0122D9F80000314688E80C008DE82D
S31508021AB00009234602F0DEF8D04511D0404612F05E
S31508021AC061FA0DE0404612F05DFA0C23D9F80000DF
S31508021AD031460193CDF800A00122002302F0CAF88C
S31508021AE0012007B0BDE8F08F2DE9F0434FF480726C
S31508021AF087B00024456A064688464FF00409FF2146
S31508021B0023480494CDF8149044F000F904AB2868ED
S31508021B10009305AB0193012122462346039404F060
S31508021B201FF8049A012A20D003AF294651F8080B58
S31508021B306A6804F017F868B90423D8F80000314631
S31508021B40019300970122002302F094F8012007B0BE
S31508021B50BDE8F083286804F007F803900028EBD163
S31508021B60286804F003F80390E6E706AF47F80C2D59
S31508021B70D8F8000031468DE88002234602F07AF84A
S31508021B80202021464FF4C87203F058FFCDE700BF64
S31508021B90A40A00202DE9F0434FF4807287B000248E
S31508021BA0466A4023054688461F48FF21029344F0A9
S31508021BB0ADF803940494059430681B4902AA03AF4E
S31508021BC003F0D6FF68B90C23D8F80000294601931A
S31508021BD000970122002302F04DF8012007B0BDE864
S31508021BE0F0834FF484701AF0B9FF06460028EAD04B
S31508021BF0029B4FF001099A000B49736040F8089B53
S31508021C0043F064FF4FF48473D8F800002946019321
S31508021C1000964A46234602F02DF8BE42DDD03046EB
S31508021C2012F0B0F9D9E700BFA40A00202DE9F04165
S31508021C30446A84B0656806466B093F2B88461AD8FB
S31508021C40234F05F01F0107EB8303DA6822FA01F333
S31508021C50DB0720D40123039303ABD8F800000093D3
S31508021C600423019331460122002302F003F80120DE
S31508021C7004B0BDE8F081E36822460421083452F82C
S31508021C80100B01910094294603F074FF0390002873
S31508021C90E2D10020ECE7224604F1080152F8100BC3
S31508021CA0E368009104210191294603F063FF03903A
S31508021CB00028EED06368012103F01F0201FA02F23E
S31508021CC05B0907EB8307FB6823EA0203FB60C3E7AA
S31508021CD0980A0020F0B5446A85B004F1080605465C
S31508021CE00F4694E80500314603F046FF04AB3A680E
S31508021CF043F8040D00930423104601932946012252
S31508021D00002301F0B7FF039848B10021C82220201A
S31508021D1003F094FE20683146626803F02FFF421EE4
S31508021D205042504105B0F0BDF0B5ADF5357D0746D8
S31508021D301046BA9A0E46009204AD03A904220395E8
S31508021D40FEF748FD044648B9386831462246234616
S31508021D5001F0C0FF20460DF5357DF0BD039B3868BE
S31508021D605B1B0193009531460122002301F082FF95
S31508021D700120F0E7F8B5436A0F461D680A4B064686
S31508021D80D3F8D41000E011464A6832B1CC69A542AC
S31508021D90F9D105480FF0BEFB012238683146002307
S31508021DA001F098FF0120F8BD5834002038B5036ABF
S31508021DB0094A043B0446A2FB0302636A0D46D2089B
S31508021DC0191D06481AF048FE2868214601220023F2
S31508021DD001F080FF012038BD398EE33858340020DF
S31508021DE070B58CB003AC05460E460D4821460EF07A
S31508021DF0E9FD40B903900490059006900790089073
S31508021E0009900A900B90242330682946019300947E
S31508021E100122002301F02EFF01200CB070BD00BF85
S31508021E20583400202DE9F041466A564B9CB0B568F5
S31508021E300746884605930CA8002305A906930FF0C2
S31508021E40A1FB002D71D12C46002505A831462A464C
S31508021E5004951AF007FDA8425ADB4FF0FF338DE8C6
S31508021E6028004948042304A9069A1DF0E5FFA8425A
S31508021E704EDB049B0CB1C3F87041D3F85841226B70
S31508021E80557ABDB90CA80FF097FB049B7168DA69FD
S31508021E90C3F86811039203ABD8F800000093042331
S31508021EA0019339460122002301F0E4FE01201CB009
S31508021EB0BDE8F08110A8E16A13F0E2F9149B64699F
S31508021EC0980606D52F49013D002384E80A00EDB29B
S31508021ED00C3410A808A913F087FF002818DB0DF1A7
S31508021EE0580E0DF1400CBCE80F00AEE80F009CE856
S31508021EF003008EE803001B9B16A8002B08A92CDDFD
S31508021F0013F072FF002803DB9DF82030002BF2D075
S31508021F10049818B11DF02CFF002304930CA80FF0A7
S31508021F204BFB4FF0FF330393B5E71749D1F85841F6
S31508021F3003E0E269954287D01C466368002BF8D114
S31508021F40D1F8644104E0E26995423FF47DAF1C464C
S31508021F506368002BF7D11C4676E7002D92D0013D27
S31508021F60EDB2013505EB450504EB850501E0AC420A
S31508021F7088D02146044810AA19F076FE0C340028A7
S31508021F80F5DAC5E710000100583400202DE9F04FB4
S31508021F90824683B023488B4610F062FA04462248EA
S31508021FA010F05EFA241804F101094FEA8909484635
S31508021FB001211AF0F9FD804600282BD01B4A054656
S31508021FC0D2F8587145F8044B7C6844B12E46FB6931
S31508021FD0274646F8043B64683546002CF7D1D2F802
S31508021FE06461746834B1F769264645F8047B646807
S31508021FF0002CF8D1DBF8000051468DE800030122D7
S31508022000002301F037FE404611F0DAFF012003B043
S31508022010BDE8F08FDBF8000051464246434601F020
S3150802202059FEF0E7B0350020BC35002058340020B0
S3150802203070B5436A84B00024039405460E460846E2
S3150802204002AA196803AB0294FEF73AFDA0420FDB17
S31508022050029B30680093039B29460193012223467B
S3150802206001F008FE029811F0ABFF012004B070BD22
S31508022070224630682946234601F02CFEF2E700BFC5
S31508022080F0B5436A064615481D6885B00F46D0F86E
S31508022090583100E013465A68A2B1DC69A542F9D163
S315080220A018461DF065FE0123039303AB38680093B7
S315080220B00423019331460122002301F0DBFD0120AE
S315080220C005B0F0BDD0F8643100E013465A681AB17B
S315080220D0D8698542F9D1E3E70392E6E75834002046
S315080220E0F8B5436A064611481D680F46D0F85831B6
S315080220F000E013465A686AB1DC69A542F9D1184666
S315080221001DF04EF8012238683146002301F0E2FD3F
S315080221100120F8BDD0F8643100E013465A68002A57
S31508022120F1D0D8698542F8D1E9E700BF58340020D2
S31508022130F8B5436A064611481D680F46D0F8583165
S3150802214000E013465A686AB1DC69A542F9D1184615
S315080221501DF034F8012238683146002301F0BAFD31
S315080221600120F8BDD0F8643100E013465A68002A07
S31508022170F1D0D8698542F8D1E9E700BF5834002082
S315080221802DE9F043436A06462F481C6883B00F467A
S31508022190D0F8583100E013465A68002A46D0D96961
S315080221A08C42F8D1D3F87091D9F80C305D68E5B154
S315080221B01C69BCB104F1300011F0D2FF0346224873
S315080221C09BB1D3F80C800FF0ABF980452B46EDD1C5
S315080221D000230093384631462246FFF7A5FD03B091
S315080221E0BDE8F08304F070F8E4E70C201AF0B6FCB8
S315080221F0164A01460446144818F070FA002820DBED
S31508022200D9F8643165689B694846EB61294605F148
S31508022210240217F051FB002813DB0B480FF080F954
S31508022220294605F1300217F047FBD1E7D0F86431A9
S3150802223000E0034658680028D1D0DA699442F8D1FA
S31508022240B0E70020CBE700BF58340020BC38002096
S31508022250F0B5436A104F83B006461D68D7F8582171
S3150802226000E01A4653685BB1D469A542F9D1343203
S315080222700023009308463146FFF756FD03B0F0BD2A
S31508022280D7F8642100E01A4653681BB1D469A542FF
S31508022290F9D1ECE71A46EBE758340020436A70B5E1
S315080222A0274D1C685A68D5F8583100E00B4659681C
S315080222B0002939D0D8698442F8D1D3F8504103E0CD
S315080222C062B15A1E53B10C466168531E29B3A06CFB
S315080222D00028F5D113465A1E002BF4D1E668D6F823
S315080222E01831E3B1013B03EBC30306EB8305403523
S315080222F06B68B26B934201D003F0E6FF95F9203082
S31508022300002B01DB03F0E0FF95F82030EC6103F0C7
S31508022310B80343F0440385F82030012070BD03F06A
S31508022320D3FFD6F81831DDE7D5F8643100E00B465D
S3150802233059680029F1D0D8698442F8D1BDE700BFAF
S3150802234058340020F0B5436A074633481E685A686F
S3150802235089B0D0F8583100E023465C68002C35D0A5
S31508022360DD69AE42F8D1D3F8503104E0002A3ED0F6
S31508022370621E5CB12B465D68541E002D30D09E6CE1
S31508022380002EF3D11446621E002CF3D11869DC6BB9
S315080223901A6B201A214C567A801004FB00F0DD696C
S315080223A09C6B0596927A9B6A2C1B0393049406925D
S315080223B0079003AB08680093142301933946012258
S315080223C0002301F057FC012009B0F0BDD0F86431B2
S315080223D000E023465C681CB1D8698642F9D1C2E797
S315080223E0002208681346394601F074FCEBE7B26925
S315080223F01D69537AF4690593937A084A0693B36872
S31508022400306AEB1A9B1002FB03F23369201A039314
S3150802241004900792CDE700BF58340020ABAAAAAAB7
S31508022420F8B5476A864627483E687A68D0F858312A
S3150802243000E023465C68002C2AD0DD69AE42F8D15A
S31508022440D3F8504104E0002A34D05A1E53B12C4620
S315080224506568531E35B3A66C002EF4D113465A1E70
S31508022460002BF4D1FA68606ABF68A66B256902EB8D
S31508022470420205EB8205F61920F000506062E66119
S315080224800868E5637146012201F024FC0120F8BDC3
S31508022490D0F8643100E00346586818B1DC69A642F0
S315080224A0F9D1CDE7002208681346714601F012FCFD
S315080224B00120F8BD08681346714601F00BFC01209D
S315080224C0F8BD00BF58340020F0B5436A85B01B68D2
S315080224D004460D465BB917490122C1F8B43128688A
S315080224E02146002301F0F6FB002005B0F0BD01A845
S315080224F01946114A1BF00EFB002818DB0D4F029EE7
S31508022500D7F8B41159B1CB68F26814319A4206F178
S31508022510140008D303EB43039A0043F0D7FAC7F82B
S31508022520B4610122DBE702EB42029200F5E70022E0
S31508022530D5E700BF58340020C83700202DE9F047F8
S31508022540D0F82480064678489EB00F46D8F8005040
S31508022550D8F80440D0F8583100E013465A68002AE1
S3150802256037D0D9698D42F8D1D3F8503105E0002C1D
S3150802257000F0A180541E62B12B465D68621E002DD2
S3150802258000F09780996C0029F1D12246541E002A40
S31508022590F2D103F12805D8F80800012824D00CD274
S315080225A0002A79D19969AB689A7AD8F80C309A4296
S315080225B023D800201EB0BDE8F0870228F9D1002AE8
S315080225C06CD089681B69594A5B1A9B1002FB03F295
S315080225D00FE0D0F8643100E0034658680028E9D0D5
S315080225E0DA699542F8D1BFE7002A53D15969AB682F
S315080225F05A7AD8F80C309A42DBD903EB43030228FD
S3150802260001EB830952D018A8494613F003FB0028A8
S315080226104CDB1B9BDFF818A1DB7B03EB43035AF861
S31508022620333003F4C023B3F5C02F3FD1D8F80830AE
S31508022630D8F80C40012B42D00DF130086968AA6817
S31508022640404612F02FFE08AD4046294613F0CCFB51
S315080226502346013C002BF7D199F8002002EB4202EF
S315080226600AEBC20A9AF80520042A3DD01D4612A88A
S315080226700BA913F049FA159BDB8A03F03003302BBA
S315080226802BD000240094384631464A462B46FFF79B
S315080226904BFB8FE74968AAE7096884E71969DB6B88
S315080226A0224A5B1A9B1002FB03F2A2E70024254684
S315080226B0E8E728467EE701F1100501226BE70DF1EE
S315080226C0300840466968AA6812F0DAFD109B601C59
S315080226D09B0625D4044608ADB6E705AB13AA07CA76
S315080226E01C4683E80700CDE79DF82840104A04EB0C
S315080226F0440102EBC1025279032AB7D8B9F802306B
S31508022700012B03D003F0E0FD9DF8284002AB99E8BF
S3150802271007004D4683E8070099468DF80840A6E764
S3150802272000283FF447AFD6E758340020ABAAAAAA36
S31508022730B8DF06082DE9F043476A8946396899B031
S315080227400446029111B17B68002B61D1B8685449DD
S31508022750060CD1F8003143B1043951F8042F12B1ED
S31508022760D568B54205D0013BF7D1002019B0BDE8BE
S31508022770F083536B1FFA80FC9C45F6DA07F10808CA
S3150802278009A8414613F0E6F80028EED0029E002E6C
S315080227907FD07B6843B90A9BBDF82420DB6F33F8E8
S315080227A012307B60002BE0D03378A3F11102012AA4
S315080227B007D9304602A90FF05FFE0028D5DB029E34
S315080227C033780D3B012B45D87168B368002235482A
S315080227D00A4303A9039004920593029112A813F0DF
S315080227E019FA00280BDB159B2F4ADB7B03EB430305
S315080227F052F8333003F4C023B3F5C02F32D0002386
S31508022800009348462146029A3346FFF78DFAADE70A
S315080228100CA813F0FFF90028A7DB0DAB06AE93E868
S31508022820070086E807007B6803F1FF38079B069ACC
S315080228309B6F90B2089903EBC003B3F802C04B7DB5
S315080228403046C3EB0C0398451AD213F03FF800281A
S31508022850ECD18AE7796801EB410106EB8101029125
S315080228600026BBE70CA809A913F0A6FC0028C6DBBC
S315080228700F9BDB8A03F03003302BC0D10DABBFE7C9
S31508022880498A120C8844C3EB080343EA0240B8603B
S315080228905DE740460DF03AFF014602909EE700BF0B
S315080228A0FC3800200A000100B8DF06082DE9F043CB
S315080228B0446A93B02368064604932C4B0F4606A82F
S315080228C003A9626803930FF05BFE002847DB079DA6
S315080228D095F81280B8F1000F35D06A7C646805F164
S315080228E0140304FB02344FF000080CA8214613F027
S315080228F091F900280BDB0F9BDA7B1D4B02EB420298
S3150802290053F8323003F4C023B3F5C02F0AD000229D
S3150802291000923846314622464346FFF705FA13B077
S31508022920BDE8F0830DF12409484605F1080112F0C5
S3150802293001FF90B10B9BDA8A02F03002302A0CBFF3
S315080229404A460022E4E703A806A918F0D5F80028A3
S3150802295009DB4FF0FF3803ACC7E70246D8E7002287
S3150802296090461446D4E74046D9E700BF1000010056
S31508022970B8DF060810B5426A044682B00023126818
S31508022980084600932146FFF7CFF902B010BD00BFF3
S31508022990F0B5436A89B01E680E4B0546D3F8B441B2
S315080229A00D4B0F4605A802A93246029303940FF06F
S315080229B0E7FD00280BDB627C143406FB0242002387
S315080229C0009338462946FFF7AFF909B0F0BD002251
S315080229D0F5E700BF58340020100001002DE9F04F3A
S315080229E0436A85B01D680746D1F800901C7903F141
S315080229F00806FDB144F48033019395F800803068E7
S31508022A00716802AA444503C227D0192C2ED0102C6D
S31508022A1033D0DFF87CA04FEA480B0BEB08035AF8D1
S31508022A2033309A0330D5C3440AEBCB0A9AF80530F9
S31508022A30042B09D0002248463946002301F04AF9F8
S31508022A40012005B0BDE8F08F114B04EB440403EBFB
S31508022A50C4046379032BEDD844462B4603F8044B8A
S31508022A6030687168012268605960E4E7B8F1100FAE
S31508022A70E0D16B68002BDDD1EFE7029B002BD9D1A1
S31508022A80B8F1190FD6D1E8E703F01EFCCBE700BF71
S31508022A90B8DF0608F0B5456A184B2A688BB00446B3
S31508022AA00E460193029212B1977C47B10022306812
S31508022AB02146002301F00EF901200BB0F0BD04A84F
S31508022AC001A96A680FF05CFD0028EFDB01A804A9DA
S31508022AD018F012F80028E9DB55F8080F08AA696801
S31508022AE002AB03C2286869683A4603C301A804A967
S31508022AF018F028FAC243D20FD9E700BF1000010026
S31508022B002DE9F043476ADFF858803E6889B0D8F85D
S31508022B10B441124B0546894605A802A932460293D4
S31508022B2003940FF02DFD002815DB637C143406FB95
S31508022B30034484B13A1D4046214617F0CFFD0028CA
S31508022B4009DB22460023009348462946FFF7ECF89C
S31508022B5009B0BDE8F0830022F4E700BF10000100C7
S31508022B60583400202DE9F041446A184B276888B08A
S31508022B70D3F8B451164B0646884605A802A93A4622
S31508022B80029303950FF0FCFC00281CDB6B7C1435C2
S31508022B9007FB0355BDB12846616819F0B5FE90B129
S31508022BA0436820216268184643F0B0F8626800213B
S31508022BB081542A460023009340463146FFF7B4F86B
S31508022BC008B0BDE8F0810022F4E700BF58340020BF
S31508022BD0100001002DE9F041446A194B27688AB0B2
S31508022BE0D3F8B451174B0646884607A804A93A46AD
S31508022BF0049305950FF0C4FC00281EDB6B7C143584
S31508022C0007FB0355BDB1A7686368E16802AA2846AF
S31508022C100224ADF80840ADF80A7003931AF0C2FE12
S31508022C2025EAE0720023009340463146FFF77CF816
S31508022C300AB0BDE8F0812A46F4E70022F2E700BFAF
S31508022C4058340020100001002DE9F043436AA3B06E
S31508022C505C6805460E46D3F8009044B34B4B02AF68
S31508022C6039464FF0000806A80293CDF80C800EF0FC
S31508022C7089FC20460AA9FDF75FFD404535DB484633
S31508022C8016A9FDF759FD40452FDB9DF85C30002B50
S31508022C9030D09DF82E30002B27D0384621464246A2
S31508022CA018F050F9404520DB06A80EF085FC0023F3
S31508022CB00093304629462246FFF736F823B0BDE888
S31508022CC0F083039B002B36D01A78122A33D15B780D
S31508022CD003F01003DBB273BB2378102B48D03846B7
S31508022CE019A91BF0EFF9002828DA06A80EF064FCE9
S31508022CF00024DCE73846494617F0FEFE0028F4DBD6
S31508022D009DF82C309BB19DF85E302BB9384619A92F
S31508022D101BF0D8F90028E8DBBDF80A30012B01D0F0
S31508022D2003F0D2FA97E8070084E80700BCE79DF8A3
S31508022D300830102BC5D02378102B06D020463946EA
S31508022D4017F076FF0028AFDACFE76368002BF5D0D5
S31508022D501A78122AF2D15B7803F01003DBB2002B41
S31508022D60ECD1384619A917F0C7FD0028E6DABCE700
S31508022D706368002BB3D01A78122AB0D15B7803F0B5
S31508022D801003DBB2002BAAD1D8E700BF100001005E
S31508022D90F0B5114DC3B0D5F800218646531ECAB107
S31508022DA0043D002202AF55F8044F013B96001CB1C0
S31508022DB0E46801322404BC51581CF4D19200086814
S31508022DC00023019200977146012200F053FF012069
S31508022DD043B0F0BD02AFF2E7FC38002070B5134BE2
S31508022DE0ADF5816DD3F8D420064601AD002307E080
S31508022DF0D2690133B3F5807F45F8042F224611D0F4
S31508022E005468002CF4D19B0002AA08688DE80C00CD
S31508022E1031460122002300F02DFF012002B00DF5F4
S31508022E20806D70BD4FF48063EEE700BF5834002012
S31508022E302DE9F041436A0F461968274BADF5447DE3
S31508022E408046D3F8D44000E014466268002A35D09A
S31508022E50E3699942F8D1236B227E5D68029228467D
S31508022E6005F036FB0130B0F5FF7F2DD940F2FF138E
S31508022E702A4603A84FF4007105F014FB226A536828
S31508022E80002B26D082AD002452690134D6681A4630
S31508022E90360445F8046F5B68002BF5D18134A4002B
S31508022EA002AB386841468DE818000122002300F07B
S31508022EB0E1FE01200DF5447DBDE8F0813868414602
S31508022EC0134600F007FFF4E7284605F001FB431C0A
S31508022ED0CEE74FF40174E3E7583400202DE9F041B8
S31508022EE01E4A0746D2F80031406AADF5067D884685
S31508022EF0468843B1043A52F8044F14B1E568B5421C
S31508022F000DD0013BF7D10022D8F800003946134606
S31508022F1000F0E0FE01200DF5067DBDE8F081A2690C
S31508022F2006A84FF4007140F2FF1305F0BBFA626976
S31508022F30D8F8006004AB1C3292E80300256983E8DE
S31508022F40030003AC4FF40373019301220094304645
S31508022F5039460023039500F08DFEDBE7FC38002096
S31508022F602DE9F041456A214C0746D4F80031286814
S31508022F70ADF5087D8846060C43B1043C54F8042F87
S31508022F8012B1D168B1420DD0013BF7D10022D8F86F
S31508022F9000003946134600F09DFE01200DF5087D16
S31508022FA0BDE8F081136B80B29842EFDA05A829468C
S31508022FB012F0C0FB0028E9D008AC03940B4805A917
S31508022FC003AA04AB40F2FF14049415F027FD002867
S31508022FD0DCDB08ABD8F8000000934FF400730193CA
S31508022FE039460122002300F045FED6E7FC380020C8
S31508022FF02DE9F041456A284C0746D4F8003128687D
S31508023000ADF50C7D8846060C43B1043C54F8042FF2
S3150802301012B1D168B1420DD0013BF7D10022D8F8DE
S3150802302000003946134600F055FE01200DF50C7DC9
S31508023030BDE8F081536B80B29842EFDA04A82946BC
S3150802304012F088FC0028E9D00CAC0294124804A9B4
S3150802305002AA03AB40F2FF1403941EF06BFC00288D
S31508023060DCDB04A907A812F0A9FB059BBDF8102012
S31508023070DB6FD8F8000033F812500AAB079C0093AE
S315080230804FF4027301933946012200230A940B95E1
S3150802309000F0F0FDC9E700BFFC3800202DE9F04139
S315080230A0456A274C0746D4F800312868ADF50C7DE9
S315080230B08846060C43B1043C54F8042F12B1D16871
S315080230C0B1420DD0013BF7D10022D8F800003946AB
S315080230D0134600F0FFFD01200DF50C7DBDE8F081D9
S315080230E0936B80B29842EFDA05A8294612F082FC61
S315080230F00028E9D008A805A912F03AFB0028E3D06F
S31508023100079A089B11880CAA0392069840F2FF12A6
S3150802311004920B9311F0CCFF04A90346094A03A8AB
S3150802312000F000FE0BAC4FF40173D8F800003946E4
S31508023130019300940122002300F09CFDCBE700BF17
S31508023140FC380020C4C7060870B5456A86B0002355
S3150802315004460E46686804A9039313F041F9002849
S3150802316008DB0B4804A92A4605AB1EF073FE08B114
S31508023170059B039303AB306800930423019321460E
S315080231800122002300F076FD012006B070BD00BFC3
S31508023190643200202DE9F04FDFF8989193B0D9F800
S315080231A0087004900591002F00F0B88008A85021F5
S315080231B03A4601F07DFF002840F0888024240394D3
S315080231C0834605460446D9F808305A4E9A68D8689E
S315080231D09368984701218046039819F015FC07461B
S315080231E0002800F0A3800021039A42F08FFD52497D
S315080231F0B368D1F80C119A6887E822084FF0FF31B4
S31508023200F960126BD8689047B36838619A68D868CB
S31508023210D36A984750217861B26808A801F048FF36
S31508023220002842D000263D46A2460023079398F876
S3150802323000309A0706D40B98012119F0E5FB07908E
S31508023240002840D008A8D9F8084001F0A1FDA368D3
S3150802325001461B6AE0680A9A984700284FD10A9CD9
S31508023260002C65DD0B9A834607A908A801F0A0FF82
S315080232705A4607980B9901F07FF80B9A8346A41AC7
S31508023280002CF1DC98F800309B073ED5089B0136E6
S31508023290AB610A9B5645EB61C5F820B005DA08A86A
S315080232A001F000FE0C350028BFD1059C0499206860
S315080232B0039C012200230097019400F0DBFC3846A8
S315080232C010F07EFE012013B0BDE8F08F4FF0000B20
S315080232D05D465C46ECB10A9B08A89B4401F0E2FDF8
S315080232E0013405EB0B0310B1089A9A42F2D004EBAB
S315080232F0440A4FEA8A0A0AF12403039363E798F811
S3150802330000304FF0000B9B07C0D4079810F058FE08
S31508023310BCE708A801F03CFD0546DCE708683A4622
S315080233200097019704993B4600F0A4FC3846CAE781
S315080233308346A7E7980A0020FC3800202DE9F04FBB
S31508023340364F0D68D7F800318B468BB091462C0C58
S31508023350391F3BB151F8042F12B1D068A04205D0EB
S31508023360013BF7D100200BB0BDE8F08F136BADB26D
S315080233709D42F7DA04A8594612F0DCF90028F1D082
S31508023380069B197B5A7B01939B7B8A1812EB030ACD
S315080233901BD000264FF6FF78019DBBF80210B5F840
S315080233A00AC0D7F80031B4444CEA01420392110C20
S315080233B043B11B4C54F8040F10B1C568A94206D094
S315080233C0013BF7D101365645E6D10120CBE7836B9F
S315080233D01FFA82FC9C45F5DA07A803A912F00AFB34
S315080233E00028EFD0099B5B884345EBD00899BDF8C6
S315080233F01C30D1F88410C85CB9F1000F06D1013629
S3150802340020F001005645C854C6D1DEE7013640F021
S3150802341001005645C854BFD1D7E700BFFC38002083
S31508023420F83800202DE9F041476A84B03E687B6887
S31508023430003618BF0126022B884629D0052B16D03E
S31508023440012B03D0002004B0BDE8F0812E4D798906
S31508023450D5F800314BB1043D084655F8044F14B16E
S31508023460E268824238D0013BF7D11846EBE7264C90
S31508023470BD68D4F80031290C002BE3D0043C54F87B
S31508023480040F10B1C2688A4209D0013BF7D1D9E7C5
S315080234900846324607F10801FFF750FFD3E7836B68
S315080234A0ADB29D42CEDA01A807F1080112F0A2FADE
S315080234B00028C7D0039B5A884FF6FF739A42C1D099
S315080234C0029ABDF80430D2F884200120D15CBEB934
S315080234D021F00101D154B6E7236B002B0EDD00253E
S315080234E000E0798945EA0143404669463246009337
S315080234F0FFF724FF236B0135AB42F2DC0120A2E77A
S315080235000143D1549FE700BFFC380020486A10B532
S315080235100C4618B110F054FD00236362012010BD59
S3150802352010B50C4604F0E4FA206A08B9012010BD69
S315080235304FF4006119F068FA0028F8D06062012099
S3150802354010BD00BF38B5144612680D460AB90120E7
S3150802355038BDD0F8A400096801F0F2FF002807DD9B
S315080235602A68236812181B1A2A600120236038BDAC
S31508023570002038BD82B02DE9F04784B00CAC44F87F
S31508023580043F814620468846924601F071F807466E
S31508023590002840D0684639460DF0F4FF08F130009D
S315080235A04FF4006119F030FA0446002838D04FF07B
S315080235B0000E00F110050FAEC0F804E0C0F808E0EE
S315080235C00FCE0FC53368C4F80C902B60C4F8288058
S315080235D0C4F824E0BAF1000F05D004F12C005146D4
S315080235E0424642F073FA20370CD0BC420AD0A2688F
S315080235F0636802B1536003B19A60BB686760A360EF
S315080236005C60BC604FF0807108481CF0C7F86846D9
S315080236100DF0D2FF012004B0BDE8F04702B07047B2
S3150802362068460DF0C9FF2046F5E700BF583400206A
S315080236302DE9F041456A98B0064605F10C00884620
S3150802364001F016F803AC071C0FCD0FC42A68F369FC
S3150802365018BF01272260DA0702971CD443F0010239
S3150802366008F1300813F4005F08A84AF2010341463C
S31508023670F26148F2010418BF1C4600F0FBFF02ABD8
S31508023680009308A8311D2246182301F005F8404682
S3150802369008A901F0D9F9012018B0BDE8F08100BFE8
S315080236A070B520220C4605460431D0F8A400266AD5
S315080236B001F0C0FE202801D0002070BD236A43B164
S315080236C0616A31B1D5F8A400324601F0B3FE8642EA
S315080236D0F2D1D5F8A40001F04DFF012070BD00BF5C
S315080236E02DE9F041466A9CB0344601AD0746884644
S315080236F00FCC0FC52368396A2B60B3681439009357
S31508023700736806F114021C48FFF734FF07AD8446B6
S315080237100FCE0FC52168FA6901232960D1070693DE
S315080237201DD41343FB6102F40052BCF1000F1AD1F7
S3150802373042F48042644642F00106654608F13008C2
S315080237400CA8414600F096FF0CA8391D0095324692
S31508023750234600F0A1FF40460CA901F075F90120A5
S315080237601CB0BDE8F08142F40042182442F001067A
S315080237700DEB0405E2E700BF920002002DE9F041D5
S31508023780466A9CB0344601AD074688460FCC0FC53B
S315080237902368396A2B60336914390093F36806F192
S315080237A014021C48FFF7E6FE07AD84460FCE0FC586
S315080237B0FA6921680123D007069329601DD41343A9
S315080237C0FB6102F40052BCF1000F1AD142F48042A6
S315080237D0644642F00106654608F130080CA84146DF
S315080237E000F048FF0CA8391D00953246234600F022
S315080237F053FF40460CA901F027F901201CB0BDE889
S31508023800F08142F40042182442F001060DEB040549
S31508023810E2E700BF91000200F0B5214C0021251D08
S31508023820B02283B02846256042F070FA1D4B9F6885
S315080238305B689F4231D01C4E032306F1180204F13D
S315080238408C00E360E26163626660A56025620EF041
S31508023850AFFD04F198000EF0ABFD04F134001349F4
S3150802386006F1300206F13803009501F0C9F8002383
S315080238703846C4F8A4302361A361A3622363C4F85B
S31508023880A8706561E56201F073FD003018BF01207A
S31508023890012384F8AD0084F8AC30002003B0F0BDF3
S315080238A0A80B0020F4020020A0C90608E4C90608ED
S315080238B02DE9F043264E0D46B16883B0A942044667
S315080238C0904699463DD094F8A860002E36D1214FED
S315080238D0032307F11802A360A261236204F1880098
S315080238E027606460E4610EF063FD04F194000EF053
S315080238F05FFD04F13000184907F1300207F1380379
S31508023900009401F07DF80C9BC4F8A06023610A9B21
S31508023910C4F8A45063620C9BC4F80C80A3620B9B88
S31508023920C4F81490E362284601F022FD003018BF5D
S315080239300120012384F8A90084F8A83003B0BDE861
S31508023940F08373689D42BED1002ABCD1F6E700BF58
S31508023950F4020020A0C90608E4C906080F4B10B5F0
S315080239601C6894F8A8308BB10D4B1B7883B104F10F
S3150802397088000EF051FD04F194000EF04DFD00236F
S31508023980C4F8A03084F8A93084F8A830002010BD05
S31508023990D4F8A40001F028FDE9E700BFA80B00202F
S315080239A0480F002090F8A83010B504468BB10C4B8E
S315080239B01B787BB104F188000EF02EFD04F1940009
S315080239C00EF02AFD0023C4F8A03084F8A93084F842
S315080239D0A83010BDD0F8A40001F006FDEAE700BF42
S315080239E0480F002090F8A83003B97047303001F02C
S315080239F027B800BFF0B5CB6993B05A040D46064600
S31508023A0062D4980763D5D6F8944000E01C466368EA
S31508023A10FBB1616B6A699142F8D1218F6A8B914237
S31508023A20F4D116F190020AD0944208D0A16801B1E5
S31508023A304B60506899606060A2605460846004F0CC
S31508023A404FF9E368C4E90601D9073DD443F00103F7
S31508023A50E36006F1180202F1180790681168002857
S31508023A6070D000296ED0D5F814C04B68013863456A
S31508023A7009D00023834203F1010363D0083161D0E0
S31508023A804C686445F6D10B68284651689847EB6935
S31508023A90DA0719D443F00102EA6103F40053002855
S31508023AA076D043F40044303602A8314600F0E2FDEF
S31508023AB0002302A8291D009344F0010200F0ECFD40
S31508023AC0304602A900F0C0FF012013B0F0BDD6F8B7
S31508023AD0884000E01C466368002B57D0626B696910
S31508023AE09142F7D1628F298B9142F3D116F1840262
S31508023AF00AD0944208D0A16801B14B605068996017
S31508023B006060A2605460846004F0EAF82022C4E986
S31508023B100601D6F8A40004F12401256C01F08AFCFA
S31508023B202028D1D1236C43B1616C31B1D6F8A400F7
S31508023B302A4601F07FFC8542C6D1D6F8A40001F0D8
S31508023B4019FDC1E70C32BA4287D1EA6912F00104BB
S31508023B50BAD112F4005F06F1300642F0010246F2CB
S31508023B60010344F2010718BF1F4602A83146EA615B
S31508023B7000F080FD02A8291D00943A46234600F06B
S31508023B808BFD304602A900F05FFF9DE7324662E7E9
S31508023B9043F4804487E700BF38B505460C4603F070
S31508023BA0A7FF28462146BDE83840FFF723BF00BFD6
S31508023BB02DE9F84328A5D5E90045804604F090F892
S31508023BC02418D8F89C6045EB01054FF000091BE064
S31508023BD0D6E90623A24273EB050104DBD8F8A03026
S31508023BE0B3F5A05F0FD973687B6003B19F60C6F80F
S31508023BF00890C6F804903269D8F8A0309B1AC8F81B
S31508023C00A03010F0DDF93E46B7683046002FDFD106
S31508023C10D8F8901019E0D1E90623A24273EB050CF5
S31508023C2004DBD8F8A030B3F5A05F0DD94B687360F2
S31508023C3003B19E608F604F600A69D8F8A0309B1A5C
S31508023C40C8F8A03010F0BCF931468E680846002E36
S31508023C50E1D1BDE8F88300BF803C36FEFFFFFFFFD7
S31508023C6030B4029D1446029330302A46234630BCAD
S31508023C7000F0F0BE2DE9F041CD6992B00C46E90795
S31508023C80189E1ED445F00101E16105F40055DAB12A
S31508023C9045F400450BB945F00105C2B916469046EA
S31508023CA000F13007394602A800F0E4FC02A8211DFB
S31508023CB000962A46434600F0EFFC384602A900F071
S31508023CC0C3FE12B0BDE8F08145F48045E2E7DDF8AF
S31508023CD06480E5E770B5CD690C46E90792B01BD456
S31508023CE045F00101E16105F40055BAB145F4004514
S31508023CF00BB945F0010500F13006314602A800F07D
S31508023D00B9FC002302A8211D00932A4600F0C4FC30
S31508023D10304602A900F098FE12B070BD45F48045FF
S31508023D20E6E700BF0CB470B582B006AC54F8042BB3
S31508023D30064623460D4600680968019404F09CFB72
S31508023D400346C043C00F00B92B683268D1183160E8
S31508023D500021D1542A68D31A2B6002B0BDE87040FC
S31508023D6002B07047014BD86801F004BCF402002087
S31508023D702DE9F04F314F83B03B6806469A000D464F
S31508023D8054D44B1C55D0002D50DD2D4CDFF8B49081
S31508023D904FF00008B34611E0D9F80C00D9F8043000
S31508023DA0284E984206D02849226801F043FBF0685B
S31508023DB001F0E0FBC4F80080002D37DD2668224AB0
S31508023DC0C6F17F0A5545B8BFAA46901959465644C0
S31508023DD0524641F07BFEA319502E266083F80480D2
S31508023DE0D344CAEB050505DC17480A2141F0F4FF5E
S31508023DF00028E1D003F07CFE3B6859000FD50F4A34
S31508023E001368DA030BD4114A1368186838B142F2F8
S31508023E1001030093226801210B4BFFF721FF3B6840
S31508023E205B00B9D4074ED9F80C00BCE703B0BDE86D
S31508023E30F08F04F04DFB0546A5E700BF5834002075
S31508023E40640C0020F4020020680C00206032002076
S31508023E5010B5ADF5007D0B46024640F2FF116846E5
S31508023E6004F00AFB0023041E0DDA8DF8FF3140F236
S31508023E70FF1402F029FA68462146FFF779FF204621
S31508023E800DF5007D10BD0DF80430F4E70FB400B54A
S31508023E9083B004AB53F8040B19460193FFF7D8FF16
S31508023EA003B05DF804EB04B0704700BF30B5ADF55A
S31508023EB0037D02AC014601AB6A4640F2FF1507488C
S31508023EC08DE8300014F0AAFD00232146044884F840
S31508023ED0FF31FFF7DBFF0DF5037D30BDFC3800200F
S31508023EE0C4C7060830B5ADF5037D014602AC6A467D
S31508023EF001AB40F2FF1506488DE830001DF0C4FC00
S31508023F0021460448FFF7C2FF0DF5037D30BD00BF09
S31508023F10FC380020C4C7060810B50E49044612F03C
S31508023F20FBF838B1636853B10B48196CBDE8104009
S31508023F30FFF7ACBF2046094912F0EEF800B910BDEA
S31508023F406368002BFBD00648196CBDE81040FFF7E2
S31508023F509DBF00BFC438002088CB0608F43800206D
S31508023F60B4CB0608B0F1504F08B5034600F0A98055
S31508023F701CDDB0F1664F00F0A8802EDDB0F17B4F54
S31508023F8000F0A58069DDB0F1007F00F0908000F3B3
S31508023F905581B0F17F4F00F08880B0F1807F00F044
S31508023FA08280B0F17E4F45D1694808BDB0F1244FF1
S31508023FB000F0898023DDB0F1424F6ED030DDB0F1DA
S31508023FC0494F64D000F34A81B0F1444F00F08B8028
S31508023FD0B0F1484F2ED15F4808BDB0F1594F6ED0A7
S31508023FE048DDB0F1624F00F0828000F39180B0F1B3
S31508023FF0604F7AD0B0F1614F1CD1574808BDB0F175
S31508024000174F56D01DDDB0F11A4F44D000F3368152
S31508024010B0F1184F3DD0B0F1194F0BD14F4808BD3A
S31508024020B0F1284F5DD064DCB0F1254F57D0B0F11E
S31508024030274F52D01F214A4A4A4803F01BFF4948D4
S3150802404008BDB0F1114F38D071DCB0F1014F32D052
S31508024050B0F1024FEED1444808BDB0F1694F3AD0EB
S3150802406000F3CC80B0F1674F33D0B0F1684FE1D19D
S315080240703E4808BDB0F1554F13D000F3CF80B0F1DA
S31508024080514F0CD0B0F1544FD4D1394808BD3948F4
S3150802409008BD394808BD394808BD394808BD3948F8
S315080240A008BD394808BD394808BD394808BD3948E8
S315080240B008BD394808BD394808BD394808BD3948D8
S315080240C008BD394808BD394808BD394808BD3948C8
S315080240D008BD394808BD394808BD394808BD3948B8
S315080240E008BD394808BD394808BD394808BD3948A8
S315080240F008BDB0F1334F07D0B0F1414F06D0B0F149
S31508024100314F97D1344808BD344808BD344808BDF4
S31508024110B0F1644F07D0B0F1654F06D0B0F1634FE6
S3150802412088D1304808BD304808BD304808BDB0F1CE
S31508024130154F08D0B0F1164F07D0B0F1124F7FF4E1
S3150802414079AF2B4808BD2B4808BD2B4808BD00BFD0
S315080241508CD0060810CE060850CF0608B8CC06083A
S3150802416018D10608E80C0020FCCB060800D0060881
S31508024170B8CE060828CE0608A4CC0608D0CC06086F
S31508024180D0CD06089CCE0608D0CE0608A8D00608CA
S315080241909CD00608BCD0060880CC0608E0CB0608E8
S315080241A01CCC060828CF060880CE06082CCD0608A1
S315080241B0C8CF060874D00608E4CF06081CD006083D
S315080241C054CD060840CD060874CD0608E8CD060883
S315080241D040CF060868CF060894CD0608ACCD060877
S315080241E0B8CD060880CF06089CCF0608B4CF0608C5
S315080241F034CC06084CCC060864CC0608B0F1784FD5
S3150802420008D0B0F17A4F07D0B0F1774F7FF412AFEA
S31508024210224808BD224808BD224808BDB0F1574FBA
S3150802422008D0B0F1584F07D0B0F1564F7FF402AF1D
S315080242301D4808BD1D4808BD1D4808BDB0F1806F60
S3150802424008D0B0F1A06F07D0B0F1407F7FF4F2AE8C
S31508024250184808BD184808BD184808BDB0F14E4FA1
S3150802426008D0B0F14F4F07D0B0F14D4F7FF4E2AE10
S31508024270134808BD134808BD134808BDB0F1224FBC
S3150802428008D0B0F1234F07D0B0F1214F7FF4D2AE58
S315080242900E4808BD0E4808BD0E4808BD38D00608A7
S315080242A04CD0060860D00608E0CE0608F8CE060806
S315080242B014CF0608D4D00608ECD0060800D10608A2
S315080242C04CCE060860CE060874CE0608E8CC060868
S315080242D000CD060814CD060830B5054683B0084653
S315080242E026F09CF9044600282FD01D48FFF7CEFD7C
S315080242F0201DFFF7DBFD606BFFF734FEEB68014616
S31508024300DA691848FFF7C2FD237B102B1FD016491E
S315080243101648FFF7BBFD204601A926F089F904468F
S3150802432098B1019B5A1E01927BB11148FFF7AEFD67
S315080243302046FFF7D7FD61680E48FFF7A7FD019BE8
S3150802434008345A1E0192002BEFD103B030BD2369FF
S31508024350002BDCD05968044B002908BF1946D7E759
S3150802436020D1060834D10608CCB7070848D1060872
S3150802437060D106086CD10608002910B40BDD074C7B
S31508024380411810F8013B83EA126354F82330884235
S3150802439083EA0222F5D1104610BC704780D106087E
S315080243A0704700BF704700BF704700BF704700BF25
S315080243B0704700BF10B5182104464FF480723023A7
S315080243C0044818F0CBFA206000280CBF4FF07A4058
S315080243D0002010BD583400200B78102B14D14B68DE
S315080243E082684362436802B1536003B19A60094B1B
S315080243F0002298428260426009D0996843608160CF
S3150802440048609860104670474FF022407047104641
S31508024410704700BF94350020436A024A002081E8AB
S315080244200C007047100001008268436802B15360AD
S3150802443003B19A60054B002298428260426004D01A
S315080244409A6843608260506098607047943500208D
S3150802445010B504460DF0E8FC04F124000DF052FBF9
S3150802446004F12800BDE810400DF04CBB8842F0B4B8
S3150802447032D2294D002616E0132B30D002EB420326
S3150802448000EB83038B4207D90A1A921005FB02F244
S3150802449002EB420300EB8303140444F015040460A0
S315080244A01846814218D90378182BE5D14388042B7C
S315080244B0E4D1836A002BE1D00369DC07DED54478B0
S315080244C023F0005344F001044660866003614662A5
S315080244D0447030308142E6D80120F0BC7047036947
S315080244E003F0FF13032BC9D1477CC468438804FB36
S315080244F007F41F34A5FB0474B3EBD40FBED103EB48
S31508024500430300EB83039942B8D3447844F0010489
S3150802451044701846C5E700BFABAAAAAA2DE9F04F10
S31508024520026885B04FF0150B824600E03A46576896
S31508024530002F46D09369D2F81C904B45F6D298467E
S3150802454098F80030182B0BD0B8F8023003EB430367
S3150802455008EB8308C145E9D998F80030182BF3D13E
S31508024560DAF80020009757685146D8F82860CA46F4
S315080245708C46C146CFB19469D569A64211D3AE42DB
S315080245800FD2AC420DD2A6421FD0009B01E0A64232
S315080245901AD0628802EB420204EB8204A542F6D8DC
S315080245A000933A465768002FE5D16346C446009FF2
S315080245B0C846D1469A46BCF1000FC5D08CF800B061
S315080245C0C2E705B0BDE8F08F0093E168D8F8142079
S315080245D0914202D0A542E4D9E7E72048D8F80C3040
S315080245E0026804F114000393CDF808C0FFF7C4FE6D
S315080245F00421024608F11800FFF7BEFE042102460E
S3150802460008F11C00FFF7B8FE039BDDF808C08342D9
S31508024610E0D1D8F81020D8F8081042F08042C8F83D
S315080246201020D8F8042001B14A6002B191600C4BFF
S3150802463000209845C8F80800C8F804000AD09A6805
S31508024640C8F80430C8F80820C2F80480C3F80880FD
S315080246508046BFE74FF00008BCE700BFE83A0020F3
S3150802466094350020704700BF704700BF704700BFEF
S315080246700020704710B52022044640F8041B00218A
S3150802468041F044FB00230022C4E90C2300236362A1
S31508024690A362E362A36310BD2DE9F84304460068EA
S315080246A0089E056819488846002D08BF0546D5F8AC
S315080246B000E0686819469146C4F804E00022A06042
S315080246C030461D46FFF758FE2168D8F81030B1F873
S315080246D050C06361A4F818C0B8F8148000230CF11E
S315080246E0010C49F00202271D2061A1F850C0384684
S315080246F0E2612021A4F81A8025626662E3601A46FE
S31508024700FFF73AFEE060BDE8F88300BF80D50608E9
S31508024710F0B5026891B000260196029603960496B1
S315080247200596069607960896002400251368CDE98D
S315080247300C450746194809960A960B960E96B342F1
S3150802474008BF03460092186841F48044596801ABD1
S3150802475003C3324631463046FFF70EFE009A0490EE
S31508024760B2F850302021581CA2F8500044F0010437
S31508024770324601A8ADF818300596ADF81A600794C6
S31508024780089609960396FFF7F7FD3B6869465A6845
S3150802479003905268D868904711B0F0BD80D50608D4
S315080247A02DE9F04F826B83B08246061D4FF002094F
S315080247B04FF020080027062A00F2D380DFE812F01D
S315080247C00700BD007E006B00540025000B00012087
S315080247D003B0BDE8F08FDAF82400002800F0CB8099
S315080247E0DAF820100022FFF7C7FDDAF810309842EF
S315080247F040F0BC80DAF8003051469A68D8685368A7
S3150802480098470122CAF83820D5E701F0A7FA0446E4
S315080248100D46DAE90C01A94208BFA042C0F0B180F0
S315080248208D4208BF8442C0F0D88073A3D3E900231F
S31508024830DDE900018B4208BF8242E2D3514651F8B4
S31508024840283BCAE90C455A68D86813680AF12C024B
S3150802485098470028BBD0DAF82C30002B40F083802A
S315080248600622CAF83820A6E7DAF80C4020210022E8
S315080248703046CAF80C70FFF77FFD8442CAF80C402E
S3150802488000F08780DAF81C30D907BAD450460421DA
S31508024890FFF73EFFB5E7514651F8283B0AF12C02CD
S315080248A05C68D86823689847002890D0DAF82C30D4
S315080248B0002B58D10422CAF838207CE7514651F811
S315080248C0283B0AF12C025C68D868236898470028B6
S315080248D03FF47DAFDAF82C40C4F12004002C26DD23
S315080248E00AF1050B16E0304641F0BEF8621E59463B
S315080248F0E8B1304641F0A4F9DAF82C40DAF8283063
S31508024900621CC4F11F04013B002CCAF82830CAF8FD
S315080249102C200CDD082C34BF2546082534492A46A6
S31508024920304641F0A1F833492A460028DBD1072C44
S3150802493019D90322CAF838203DE7DAF8243043B1F8
S31508024940DAF8003051469A68D86893689847CAF8E0
S315080249502470CAF83890CAF82860CAF82C8002224D
S3150802496029E7002034E7DAF8382024E750460821F8
S31508024970FFF7CEFE45E7DAF82030002BF6D10146DE
S3150802498030E7201A65EB010101F014FA8DE80300FD
S315080249904BE7DAF8003051469A68D86813689847A0
S315080249A000283FF46FAFDAF82030002B3FF458AFF7
S315080249B0DAF82430002B3FF424AF01F0CFF9DAF805
S315080249C02440DAF820300522CAE90C01CAF8382050
S315080249D0CAF82840CAF82C30EDE6001B61EB05013F
S315080249E001F0E8F98DE803001FE700BFAFF3008086
S315080249F0E4C9060880D50608FF869303000000006E
S31508024A0038B580E80E00049B00250446C360294693
S31508024A104022A0F85050103041F078F92022246143
S31508024A2004F11400294641F071F900230022C4E971
S31508024A30102301236563A563E563A36438BD00BF3C
S31508024A401030FFF7ADBE00BF08B54368C0685B68A3
S31508024A50984708BD2DE9F047002490B00025CDE916
S31508024A600C450646056820480024019402940394DE
S31508024A700494059406940794089409940A940B944A
S31508024A800E94A54208BF05460096189F28688946CF
S31508024A90696801AD03C592461946224638469846C4
S31508024AA0FFF76AFC009D0490B5F8503020215A1C85
S31508024AB0A5F8502001A82246ADF81830CDF8149072
S31508024AC0ADF81A40CDF81CA0CDF8208009970394BA
S31508024AD0FFF752FC736803905B68F068694698476B
S31508024AE010B0BDE8F08700BF80D5060800B50023E0
S31508024AF083B001228DE80C0018461A464FF4E131BC
S31508024B00082304F009F9074B1B68074B1B68074B78
S31508024B101B68074B1B68074B1B6803B05DF804EB61
S31508024B2001F0E2BB38ED00E028ED00E02CED00E0F4
S31508024B3030ED00E03CED00E0044B0022191D83E84D
S31508024B400E00DA6001221A61704700BF0C0D0020C0
S31508024B502DE9F843294F3D68002D4AD0FB681BB161
S31508024B6000263046BDE8F8832B68002BF8D00126CC
S31508024B70B846AB68E8681B689847002837D00036FD
S31508024B8018BF0126AB68E8689B689847D0F8149066
S31508024B90B9F1000F17D080694FF0000CC468002CD9
S31508024BA00CDD02691378302B17D0002303E012F8C4
S31508024BB00C1F302911D00133A342F8D10CF1010C94
S31508024BC01430CC45EAD12D682B68002BD1D1FB686D
S31508024BD0002BC5D03046BDE8F883FB68002BBFD151
S31508024BE0C8F80C502D682B68002BC2D1EFE7064691
S31508024BF0C8E7034803F0D8FD2E46B2E70C0D00209D
S31508024C0088D50608F8B5124FFB683C68EBB12368ED
S31508024C100126B3B10025A368E0685B68984770B1BE
S31508024C20003618BF01266268236802B1136003B111
S31508024C305A6025601A6865601AB11C46EBE7064693
S31508024C40F1E70023FB603046F8BD01263046F8BD81
S31508024C500C0D002030B5044685B0002920D0002C62
S31508024C6029D00025A160E2602560656093B9164BDC
S31508024C70002B1ED09C421CD06168226801B10A60D2
S31508024C8002B151605A682360626014605C60012058
S31508024C9005B030BD0B68104698470028F8D0E6E7FD
S31508024CA003910292019301F00FFB019B029A039969
S31508024CB0D5E70120ECE703910292019301F004FB88
S31508024CC0019B029A0399CCE7100D0020224B2DE98D
S31508024CD0F04780461869914600220E46C8F8002019
S31508024CE020B3D3F800A0BAF1000F1FD0DAF80030CB
S31508024CF0E3B1DAF80830DAF80C009B68984741699C
S31508024D0071B1836900241D680134B54205D89A68D1
S31508024D105F6807FB0257BE420BD314338C42F2D1AB
S31508024D20DAF800A0DAF80030002BE2D10020BDE85C
S31508024D30F087751BB5FBF2F2C8F800A0C9F8002087
S31508024D409968012001FB02F2C9F800201B68D218F3
S31508024D50C9F80020BDE8F0870C0D0020044B1A693B
S31508024D601AB11868036803B170470020704700BF7C
S31508024D700C0D0020054B1B6933B1006828B1036886
S31508024D80002B08BF00207047184670470C0D0020FC
S31508024D9005C81018704700BF2DE9F0410446406A5D
S31508024DA08AB000284AD04368002B48D08368C06876
S31508024DB09B68984725460746EC4604F1200828686A
S31508024DC06968AA68EB6866460FC610354545B44653
S31508024DD0F5D128686968ACE80300A36923E0531E85
S31508024DE072B9636A5B686362002B46D05A68002A06
S31508024DF043D09A68D8689368984743690746013B3F
S31508024E00BA69636103EB830302EB8305EB68013B33
S31508024E10A3612A6903EB430112F82100266902EB12
S31508024E20810286420FD06269002BD8D0B969013B4C
S31508024E3002EB8202A36101EB8205EAE70346184602
S31508024E400AB0BDE8F0813B78516892689B07AB6867
S31508024E502D68C1EB020202FB033203FB0151E06932
S31508024E60E3604CBF40F0010020F0010000236360BC
S31508024E70E0612160A2600123E1E76E4608AF35468C
S31508024E800FCD103444F8100C44F80C1C44F8082CC6
S31508024E9044F8043CBD422E46F1D103CE00232060DD
S31508024EA06160CCE72DE9F04F446A8DB0814605462C
S31508024EB002AF00F1200C28686968AA68EB683E46CA
S31508024EC00FC6103565453746F5D12868696803C7A0
S31508024ED0002C00F0BC80D9F818300133C9F8183014
S31508024EE02368002B65D009F1180301934FF00008D7
S31508024EF0A368E0689B68D9F8107098478346DBF880
S31508024F001430D9F81400984230D2DBF8183000EB86
S31508024F10800AD9F8185003EB8A0ADAF80CC02B462D
S31508024F20654518DADAF8102005EB450612F8261058
S31508024F3002EB86068F4257D0002F55D0324603E041
S31508024F40147B0A46A7424FD0013302F10C0163458E
S31508024F501D460E46F4D1019B0130C3F80080DBF8EA
S31508024F601430002598420AF1140AD6D3D9F8243007
S31508024F701C682368C9F82440002B00F08280A368C5
S31508024F80E0689B6898470378D9F8244013F0020F23
S31508024F90D9F81C30C9F8148014BF43F0010323F072
S31508024FA00103C9F81C30C9F8188014B12368002B0C
S31508024FB09ED102AD0AAE2C460FCCB442C9F8000007
S31508024FC0C9F80410C9F80820C9F80C30254609F1B1
S31508024FD01009F0D103CD0023C9F80000C9F804105E
S31508024FE018460DB0BDE8F08F7468DAF80020DAF8D2
S31508024FF00810D9F8243004FB01219A68C9F8001070
S31508025000C9F814009268D868C9F818509047D9F8B0
S315080250101430816903EB8303D9F8182001EB830363
S31508025020196902EB420292008818846840689B68F4
S31508025030201A00FB03308A5C0021C9F80C30C9F833
S315080250400410C9F80800C9F820200123C8E7174B3D
S315080250501A69DAB11B681A68C2B19A68D868C9F8B7
S3150802506024309268904703789A0713D5D9F81C30EA
S31508025070D9F8244043F00103C9F81C30002C98D013
S315080250802EE7C9F81430C9F818308FE70023C9F893
S315080250902430A5E7D9F81C30D9F8244023F00103B7
S315080250A0C9F81C30002C84D01AE700BF0C0D00206A
S315080250B0144B70B5DB6804460E461546DBB1002173
S315080250C0282240F023FE266185B12B6873B1AB68AE
S315080250D04FF0FF329B68A2616562E86898470378D9
S315080250E099070AD5E36943F00103E3612046BDE85F
S315080250F07040FFF7D7BE184670BDE36923F0010377
S31508025100E361F3E70C0D002038B5084B0446DB686B
S315080251100D464BB10021282240F0F8FD20462561B4
S31508025120BDE83840FFF7BEBE184638BD0C0D002054
S31508025130012A70B5054621D01CD28368002401F1E4
S3150802514000420232012A20D9641804E0E41AFFF761
S31508025150A9FE88B1AB689C422846F7DA002C06DA23
S315080251602846FFF719FE38B1AB68E418F8D46C6024
S31508025170012070BD022A14D0002070BD01F1004240
S315080251800232012A44688368DED8EA686FF000466C
S31508025190B4FBF2F0B14202FB104005D030B14142F5
S315080251A0D2E783681C46CAE7111ACDE75142CBE714
S315080251B02DE9F84F436A07468A461646002B40D021
S315080251C01A68002A3DD000293BD09A68D8689368A5
S315080251D09847DAF800808346002E35D07C684FF06F
S315080251E000090DE0B9F1000F05D13B684FF001093E
S315080251F0E318CAF800306419761B7C60A84423D0E9
S31508025200BD68A54216D0A319AB429BF8003094BFDD
S315080252103546C4EB05059807E4D47B6A39689A686B
S31508025220D868D2F80CC061182A464346E04740B10E
S315080252307C68E0E73846FFF735FE10B17C68BD6842
S31508025240E1E70020BDE8F88F0120BDE8F88F00BF2E
S315080252502DE9F00F00241460D0F814909A46B9F19B
S31508025260000F34D08069A04606688E421FD8876828
S31508025270436803FB0763994219D2C3680469B3B149
S31508025280A56805FB0775AE19B14217D300250BE0D1
S31508025290D4F814B0D4F810C00C34CCEB0B0C0CFBBD
S315080252A0077C6644B1420AD301359D42F0D108F122
S315080252B001081430C845D7D1002005E00025C2F8F8
S315080252C000800120CAF80050BDE8F00F7047484632
S315080252D0FAE700BF2DE9F00FDDF8209000241460EC
S315080252E01C60C9F80040D3F80080D0F814A0D04555
S315080252F038D2806908EB880B00EB8B0BDBF80C7055
S31508025300002F13DDDBF810502878814227D0A9B187
S3150802531005F10C04002002E02E78B1420FD00130CC
S31508025320B8422546844604F10C04F5D108F1010871
S31508025330D0450BF1140BE1D300200DE08C46DBF8C7
S3150802534008106D68DBF80040012005FB0141116079
S31508025350C3F80080C9F800C0BDE8F00F70474FF0E7
S31508025360000CECE72046F7E700207047002070475C
S3150802537030B500F47F43B3F5007F83B004461BD0F3
S31508025380B3F5407F11D0B3F5807F02D0002003B079
S3150802539030BD144B00221969C0B201230093019251
S315080253A00138082303F0B8FCF1E7C0B2013803B0AC
S315080253B0BDE8304001F058BBC0F34215284600212B
S315080253C005F0E8F90028E1D1284605F0E1F90028B8
S315080253D0DCD0E0B201380121022203B0BDE8304038
S315080253E004F080BDF402002000F47F43B3F5007F89
S315080253F010B5044613D0B3F5407F0AD0B3F5807FC3
S3150802540001D0002010BDC0B20138BDE8104003F03B
S3150802541001BBC0B20138BDE8104001F027BBC0B2DB
S31508025420013804F05BF9C4F34210BDE8104004F0F9
S31508025430AFB800BF2DE9F84314461AB916463046E6
S31508025440BDE8F8835FFA80F900F47F400026B0F5DC
S31508025450007F0F464FF0630809F1FF3929D0B0F5EE
S31508025460407F43D0B0F5807F5DD0002001F0E8FA96
S31508025470002101220028E2D0202000F0DFFA43466C
S31508025480002CDCD008F1FF38002BEED13046BDE8FF
S31508025490F88301F0D5FA294601220028CFD0202028
S315080254A000F0CCFA4346002CC9D003F1FF38002B92
S315080254B0C5D039462246484604F0B2FD051EBEDB73
S315080254C0E7D03223641B7F197619ECE701F0B8FAA4
S315080254D0294601220028B2D0202000F0AFFA43461E
S315080254E0002CACD003F1FF38002BA8D0394622464F
